{"abi":[{"type":"constructor","inputs":[{"name":"_judges","type":"address[]","internalType":"address[]"}],"stateMutability":"nonpayable"},{"type":"function","name":"createEscrow","inputs":[{"name":"_serviceId","type":"uint256","internalType":"uint256"},{"name":"_deadlinePeriod","type":"uint256","internalType":"uint256"},{"name":"_context","type":"string","internalType":"string"}],"outputs":[{"name":"order_id","type":"uint256","internalType":"uint256"}],"stateMutability":"payable"},{"type":"function","name":"disputeResolutionPeriod","inputs":[],"outputs":[{"name":"","type":"uint256","internalType":"uint256"}],"stateMutability":"view"},{"type":"function","name":"disputeResult","inputs":[{"name":"_orderId","type":"uint256","internalType":"uint256"}],"outputs":[{"name":"buyerShare","type":"uint256","internalType":"uint256"}],"stateMutability":"view"},{"type":"function","name":"disputes","inputs":[{"name":"","type":"uint256","internalType":"uint256"}],"outputs":[{"name":"buyerShare","type":"uint256","internalType":"uint256"},{"name":"votes","type":"uint256","internalType":"uint256"},{"name":"timestamp","type":"uint256","internalType":"uint256"}],"stateMutability":"view"},{"type":"function","name":"escrows","inputs":[{"name":"","type":"uint256","internalType":"uint256"}],"outputs":[{"name":"buyer","type":"address","internalType":"address"},{"name":"seller","type":"address","internalType":"address"},{"name":"serviceId","type":"uint256","internalType":"uint256"},{"name":"amount","type":"uint256","internalType":"uint256"},{"name":"deadline","type":"uint256","internalType":"uint256"},{"name":"context","type":"string","internalType":"string"},{"name":"status","type":"uint8","internalType":"enum GigaCrew.EscrowStatus"}],"stateMutability":"view"},{"type":"function","name":"judgeVotes","inputs":[{"name":"","type":"uint256","internalType":"uint256"},{"name":"","type":"uint256","internalType":"uint256"}],"outputs":[{"name":"","type":"bool","internalType":"bool"}],"stateMutability":"view"},{"type":"function","name":"judges","inputs":[{"name":"","type":"uint256","internalType":"uint256"}],"outputs":[{"name":"","type":"address","internalType":"address"}],"stateMutability":"view"},{"type":"function","name":"lastOrderId","inputs":[],"outputs":[{"name":"","type":"uint256","internalType":"uint256"}],"stateMutability":"view"},{"type":"function","name":"lastServiceId","inputs":[],"outputs":[{"name":"","type":"uint256","internalType":"uint256"}],"stateMutability":"view"},{"type":"function","name":"lockPeriod","inputs":[],"outputs":[{"name":"","type":"uint256","internalType":"uint256"}],"stateMutability":"view"},{"type":"function","name":"pows","inputs":[{"name":"","type":"uint256","internalType":"uint256"}],"outputs":[{"name":"work","type":"string","internalType":"string"},{"name":"timestamp","type":"uint256","internalType":"uint256"}],"stateMutability":"view"},{"type":"function","name":"registerService","inputs":[{"name":"_title","type":"string","internalType":"string"},{"name":"_description","type":"string","internalType":"string"},{"name":"_communicationChannel","type":"string","internalType":"string"},{"name":"_rate","type":"uint256","internalType":"uint256"}],"outputs":[{"name":"service_id","type":"uint256","internalType":"uint256"}],"stateMutability":"nonpayable"},{"type":"function","name":"services","inputs":[{"name":"","type":"uint256","internalType":"uint256"}],"outputs":[{"name":"provider","type":"address","internalType":"address"},{"name":"title","type":"string","internalType":"string"},{"name":"description","type":"string","internalType":"string"},{"name":"communicationChannel","type":"string","internalType":"string"},{"name":"rate","type":"uint256","internalType":"uint256"}],"stateMutability":"view"},{"type":"function","name":"submitDispute","inputs":[{"name":"_orderId","type":"uint256","internalType":"uint256"}],"outputs":[],"stateMutability":"nonpayable"},{"type":"function","name":"submitPoW","inputs":[{"name":"_orderId","type":"uint256","internalType":"uint256"},{"name":"_work","type":"string","internalType":"string"}],"outputs":[],"stateMutability":"nonpayable"},{"type":"function","name":"voteOnDispute","inputs":[{"name":"_orderId","type":"uint256","internalType":"uint256"},{"name":"_judgeId","type":"uint256","internalType":"uint256"},{"name":"_buyerShare","type":"uint256","internalType":"uint256"}],"outputs":[],"stateMutability":"nonpayable"},{"type":"function","name":"withdrawFunds","inputs":[{"name":"_orderId","type":"uint256","internalType":"uint256"},{"name":"_signature","type":"bytes","internalType":"bytes"}],"outputs":[],"stateMutability":"nonpayable"},{"type":"event","name":"DisputeVote","inputs":[{"name":"orderId","type":"uint256","indexed":true,"internalType":"uint256"},{"name":"judgeId","type":"uint256","indexed":true,"internalType":"uint256"},{"name":"buyerShare","type":"uint256","indexed":false,"internalType":"uint256"}],"anonymous":false},{"type":"event","name":"EscrowCreated","inputs":[{"name":"orderId","type":"uint256","indexed":false,"internalType":"uint256"},{"name":"serviceId","type":"uint256","indexed":true,"internalType":"uint256"},{"name":"buyer","type":"address","indexed":true,"internalType":"address"},{"name":"seller","type":"address","indexed":true,"internalType":"address"},{"name":"context","type":"string","indexed":false,"internalType":"string"},{"name":"deadline","type":"uint256","indexed":false,"internalType":"uint256"}],"anonymous":false},{"type":"event","name":"EscrowDisputed","inputs":[{"name":"orderId","type":"uint256","indexed":true,"internalType":"uint256"}],"anonymous":false},{"type":"event","name":"FundsWithdrawn","inputs":[{"name":"orderId","type":"uint256","indexed":true,"internalType":"uint256"},{"name":"to","type":"address","indexed":true,"internalType":"address"},{"name":"amount","type":"uint256","indexed":false,"internalType":"uint256"}],"anonymous":false},{"type":"event","name":"PoWSubmitted","inputs":[{"name":"orderId","type":"uint256","indexed":true,"internalType":"uint256"},{"name":"buyer","type":"address","indexed":true,"internalType":"address"},{"name":"seller","type":"address","indexed":true,"internalType":"address"},{"name":"work","type":"string","indexed":false,"internalType":"string"},{"name":"lockPeriod","type":"uint256","indexed":false,"internalType":"uint256"}],"anonymous":false},{"type":"event","name":"ServiceRegistered","inputs":[{"name":"serviceId","type":"uint256","indexed":true,"internalType":"uint256"},{"name":"provider","type":"address","indexed":true,"internalType":"address"}],"anonymous":false},{"type":"error","name":"AlreadyVoted","inputs":[]},{"type":"error","name":"DeadlineAlreadyPassed","inputs":[{"name":"deadline","type":"uint256","internalType":"uint256"}]},{"type":"error","name":"DeadlineNotPassed","inputs":[{"name":"deadline","type":"uint256","internalType":"uint256"}]},{"type":"error","name":"DisputeResolutionPeriodNotPassed","inputs":[{"name":"deadline","type":"uint256","internalType":"uint256"}]},{"type":"error","name":"DisputeResolutionPeriodPassed","inputs":[{"name":"deadline","type":"uint256","internalType":"uint256"}]},{"type":"error","name":"EmptyWork","inputs":[]},{"type":"error","name":"EscrowAlreadyWithdrawn","inputs":[]},{"type":"error","name":"EscrowNotPending","inputs":[{"name":"status","type":"uint8","internalType":"enum GigaCrew.EscrowStatus"}]},{"type":"error","name":"EscrowWithoutEnoughFunding","inputs":[]},{"type":"error","name":"InvalidBuyerShare","inputs":[]},{"type":"error","name":"InvalidOrderId","inputs":[]},{"type":"error","name":"InvalidServiceId","inputs":[]},{"type":"error","name":"LockPeriodNotPassed","inputs":[{"name":"lockDeadline","type":"uint256","internalType":"uint256"}]},{"type":"error","name":"MustBeBuyer","inputs":[]},{"type":"error","name":"MustBeJudge","inputs":[]},{"type":"error","name":"MustBeSeller","inputs":[]},{"type":"error","name":"NoDispute","inputs":[]},{"type":"error","name":"PoWAlreadySubmitted","inputs":[{"name":"submissionTimestamp","type":"uint256","internalType":"uint256"}]},{"type":"error","name":"PoWNotSubmitted","inputs":[]}],"bytecode":{"object":"0x6080604052607860005560786001553480156200001b57600080fd5b5060405162001e8c38038062001e8c8339810160408190526200003e916200010f565b8051620000539060029060208401906200005b565b5050620001e1565b828054828255906000526020600020908101928215620000b3579160200282015b82811115620000b357825182546001600160a01b0319166001600160a01b039091161782556020909201916001909101906200007c565b50620000c1929150620000c5565b5090565b5b80821115620000c15760008155600101620000c6565b634e487b7160e01b600052604160045260246000fd5b80516001600160a01b03811681146200010a57600080fd5b919050565b600060208083850312156200012357600080fd5b82516001600160401b03808211156200013b57600080fd5b818501915085601f8301126200015057600080fd5b815181811115620001655762000165620000dc565b8060051b604051601f19603f830116810181811085821117156200018d576200018d620000dc565b604052918252848201925083810185019188831115620001ac57600080fd5b938501935b82851015620001d557620001c585620000f2565b84529385019392850192620001b1565b98975050505050505050565b611c9b80620001f16000396000f3fe6080604052600436106100fe5760003560e01c80638db9cb8711610095578063c22c4f4311610064578063c22c4f431461030c578063c3480bfa1461033d578063d3967a6b1461035d578063ecb7dbe91461037d578063fdd1f7541461039357600080fd5b80638db9cb871461027e578063981e7c3914610294578063b06b0368146102b4578063b8c4fd83146102ec57600080fd5b806348c77367116100d157806348c77367146101d05780634f129fa3146101fe578063564a565d146102115780635662ecc71461026857600080fd5b8063012f52ee14610103578063065d82e61461013f5780633fd8b02f14610161578063481b6a3414610185575b600080fd5b34801561010f57600080fd5b5061012361011e36600461163b565b6103b3565b60405161013697969594939291906116d2565b60405180910390f35b34801561014b57600080fd5b5061015f61015a3660046117dd565b61048a565b005b34801561016d57600080fd5b5061017760005481565b604051908152602001610136565b34801561019157600080fd5b506101c06101a0366004611824565b600760209081526000928352604080842090915290825290205460ff1681565b6040519015158152602001610136565b3480156101dc57600080fd5b506101f06101eb36600461163b565b61061c565b604051610136929190611846565b61017761020c366004611868565b6106c0565b34801561021d57600080fd5b5061024d61022c36600461163b565b60066020526000908152604090208054600182015460029092015490919083565b60408051938452602084019290925290820152606001610136565b34801561027457600080fd5b5061017760095481565b34801561028a57600080fd5b5061017760085481565b3480156102a057600080fd5b506101776102af3660046118b8565b6108a3565b3480156102c057600080fd5b506102d46102cf36600461163b565b61098e565b6040516001600160a01b039091168152602001610136565b3480156102f857600080fd5b5061015f610307366004611948565b6109b8565b34801561031857600080fd5b5061032c61032736600461163b565b61104f565b604051610136959493929190611999565b34801561034957600080fd5b5061015f6103583660046119f6565b611220565b34801561036957600080fd5b5061015f61037836600461163b565b6113ee565b34801561038957600080fd5b5061017760015481565b34801561039f57600080fd5b506101776103ae36600461163b565b611540565b60046020819052600091825260409091208054600182015460028301546003840154948401546005850180546001600160a01b0395861697949095169592949192916103fe90611a22565b80601f016020809104026020016040519081016040528092919081815260200182805461042a90611a22565b80156104775780601f1061044c57610100808354040283529160200191610477565b820191906000526020600020905b81548152906001019060200180831161045a57829003601f168201915b5050506006909301549192505060ff1687565b81610494816115e5565b6000818152600460205260409020600101546001600160a01b031633146104ce5760405163fa642e6360e01b815260040160405180910390fd5b6000838152600560205260409020600101541561051a576000838152600560205260409081902060010154905163dbb03dd160e01b815260048101919091526024015b60405180910390fd5b600083815260046020819052604090912001544211156105645760008381526004602081905260409182902081015491516311a4f1f760e21b815261051192910190815260200190565b815160000361058657604051631ea15b4b60e21b815260040160405180910390fd5b604080518082018252838152426020808301919091526000868152600590915291909120815181906105b89082611aa4565b5060208201518160010155905050336001600160a01b0316837fe2b3f279900120f735e8324ad7c0dd2d1952a3dac2a45b4b1f3bdae047bba53b84600054426106019190611b7a565b60405161060f929190611846565b60405180910390a3505050565b60056020526000908152604090208054819061063790611a22565b80601f016020809104026020016040519081016040528092919081815260200182805461066390611a22565b80156106b05780601f10610685576101008083540402835291602001916106b0565b820191906000526020600020905b81548152906001019060200180831161069357829003601f168201915b5050505050908060010154905082565b600060085484106106e457604051635622fbe760e11b815260040160405180910390fd5b60008481526003602052604090206004015434101561071657604051631cffc73b60e21b815260040160405180910390fd5b6000848152600360205260408120546001600160a01b0316906107398542611b7a565b905060095492506040518060e00160405280336001600160a01b03168152602001836001600160a01b03168152602001878152602001348152602001828152602001858152602001600060048111156107945761079461169a565b9052600084815260046020818152604092839020845181546001600160a01b03199081166001600160a01b03928316178355928601516001830180549094169116179091559183015160028301556060830151600383015560808301519082015560a082015160058201906108099082611aa4565b5060c082015160068201805460ff1916600183600481111561082d5761082d61169a565b0217905550905050816001600160a01b0316336001600160a01b0316877f4916ef7907b23c52dc675748df584e7ba2a7b0ae61ac6e08ddc24bc0ff2751c886888660405161087d93929190611b93565b60405180910390a46009805490600061089583611bbc565b919050555050509392505050565b6008546040805160a0810182523381526020808201888152828401889052606083018790526080830186905260008581526003909252929020815181546001600160a01b0319166001600160a01b039091161781559151909190600182019061090c9082611aa4565b50604082015160028201906109219082611aa4565b50606082015160038201906109369082611aa4565b5060809190910151600490910155604051339082907ffcd335a152e711f7e0e74487e27043f438dc7e73d600889758eb946a0192c3e090600090a36008805490600061098183611bbc565b9190505550949350505050565b6002818154811061099e57600080fd5b6000918252602090912001546001600160a01b0316905081565b816109c2816115e5565b600083815260046020819052604090912060068101546001820154825460039093015460ff909216936001600160a01b03918216939091169190846004811115610a0e57610a0e61169a565b03610a2c576040516372d3fbd360e01b815260040160405180910390fd5b6002846004811115610a4057610a4061169a565b03610b035760006064610a5289611540565b610a5c9084611bd5565b610a669190611bec565b610a709083611c0e565b6000898152600460208190526040808320600601805460ff1916909217909155519192506001600160a01b038616916108fc84150291849190818181858888f19350505050158015610ac6573d6000803e3d6000fd5b50836001600160a01b031688600080516020611c4683398151915283604051610af191815260200190565b60405180910390a35050505050505050565b6003846004811115610b1757610b1761169a565b03610bbe5760006064610b2989611540565b610b339084611bd5565b610b3d9190611bec565b6000898152600460208190526040808320600601805460ff1916909217909155519192506001600160a01b038516916108fc84150291849190818181858888f19350505050158015610b93573d6000803e3d6000fd5b50826001600160a01b031688600080516020611c4683398151915283604051610af191815260200190565b855115610bff5760405162461bcd60e51b815260206004820152600f60248201526e139bdd081a5b5c1b195b595b9d1959608a1b6044820152606401610511565b6001846004811115610c1357610c1361169a565b03610e7f576000610c2388611540565b905080600003610caa576000888152600460208190526040808320600601805460ff1916909217909155516001600160a01b038616916108fc851502918591818181858888f19350505050158015610c7f573d6000803e3d6000fd5b50836001600160a01b031688600080516020611c4683398151915284604051610af191815260200190565b80606403610d2f576000888152600460208190526040808320600601805460ff1916909217909155516001600160a01b038516916108fc851502918591818181858888f19350505050158015610d04573d6000803e3d6000fd5b50826001600160a01b031688600080516020611c4683398151915284604051610af191815260200190565b6064610d3b8284611bd5565b610d459190611bec565b90506000610d538284611c0e565b90506001600160a01b0384163303610df257600089815260046020526040808220600601805460ff19166002179055516001600160a01b038616916108fc851502918591818181858888f19350505050158015610db4573d6000803e3d6000fd5b50836001600160a01b031689600080516020611c4683398151915284604051610ddf91815260200190565b60405180910390a3505050505050505050565b6001600160a01b0385163303610e7c57600089815260046020526040808220600601805460ff19166003179055516001600160a01b038716916108fc841502918491818181858888f19350505050158015610e51573d6000803e3d6000fd5b50846001600160a01b031689600080516020611c4683398151915283604051610ddf91815260200190565b50505b60008781526005602052604090206001015415610f8457600080548882526005602052604090912060010154610eb59190611b7a565b4211610ef657600080548882526005602052604090912060010154610eda9190611b7a565b6040516303e7ea8d60e51b815260040161051191815260200190565b6000878152600460208190526040808320600601805460ff1916909217909155516001600160a01b038516916108fc841502918491818181858888f19350505050158015610f48573d6000803e3d6000fd5b50826001600160a01b031687600080516020611c4683398151915283604051610f7391815260200190565b60405180910390a350505050505050565b600087815260046020819052604090912001544211610fcd57600087815260046020819052604091829020810154915163336d9e1760e01b815261051192910190815260200190565b6000878152600460208190526040808320600601805460ff1916909217909155516001600160a01b038416916108fc841502918491818181858888f1935050505015801561101f573d6000803e3d6000fd5b50816001600160a01b031687600080516020611c4683398151915283604051610f7391815260200190565b505050565b600360205260009081526040902080546001820180546001600160a01b03909216929161107b90611a22565b80601f01602080910402602001604051908101604052809291908181526020018280546110a790611a22565b80156110f45780601f106110c9576101008083540402835291602001916110f4565b820191906000526020600020905b8154815290600101906020018083116110d757829003601f168201915b50505050509080600201805461110990611a22565b80601f016020809104026020016040519081016040528092919081815260200182805461113590611a22565b80156111825780601f1061115757610100808354040283529160200191611182565b820191906000526020600020905b81548152906001019060200180831161116557829003601f168201915b50505050509080600301805461119790611a22565b80601f01602080910402602001604051908101604052809291908181526020018280546111c390611a22565b80156112105780601f106111e557610100808354040283529160200191611210565b820191906000526020600020905b8154815290600101906020018083116111f357829003601f168201915b5050505050908060040154905085565b828261122b8261160a565b6002818154811061123e5761123e611c21565b6000918252602090912001546001600160a01b031633146112725760405163a1f19a5b60e01b815260040160405180910390fd5b600085815260076020908152604080832087845290915290205460ff16156112ad57604051637c9a1cf960e01b815260040160405180910390fd5b60015460008681526006602052604090206002015442916112cd91611b7a565b101561130e576001546000868152600660205260409020600201546112f29190611b7a565b604051630ed9be0960e01b815260040161051191815260200190565b606483111561133057604051636c92019160e11b815260040160405180910390fd5b60008581526007602090815260408083208784528252808320805460ff1916600190811790915588845260069092529091208082015490549091611375908390611b7a565b856113808484611bd5565b61138a9190611b7a565b6113949190611bec565b600088815260066020526040812091825560019091018054916113b683611bbc565b919050555085877f312c806a35cfe3d38711aa246e6075bb138d63f58daf0a48ffd2c427099a745a87604051610f7391815260200190565b806113f8816115e5565b6000818152600460205260409020546001600160a01b0316331461142f57604051633192ea7760e01b815260040160405180910390fd5b600082815260046020819052604082206006015460ff16908111156114565761145661169a565b1461148b5760008281526004602081905260409182902060060154915163da72081760e01b81526105119260ff169101611c37565b60008281526005602052604081206001015490036114bc576040516317c12a4960e31b815260040160405180910390fd5b60008281526004602090815260408083206006908101805460ff191660019081179091558251606081018452858152808501868152428286019081528988529390955283862090518155935190840155516002909201919091555183917f7ce7831fed9a800b1aa5e7ca21034bf7b95efc31a196459012cf8b8eb42b7dac91a25050565b60008161154c8161160a565b60015460008481526006602052604090206002015461156b9190611b7a565b42116115ac576001546000848152600660205260409020600201546115909190611b7a565b6040516332c6b2c360e01b815260040161051191815260200190565b60008381526006602052604081206001015490036115cd57600091506115df565b60008381526006602052604090205491505b50919050565b600954811061160757604051635d70603360e01b815260040160405180910390fd5b50565b60008181526006602052604081206002015490036116075760405163126ea8e960e31b815260040160405180910390fd5b60006020828403121561164d57600080fd5b5035919050565b6000815180845260005b8181101561167a5760208185018101518683018201520161165e565b506000602082860101526020601f19601f83011685010191505092915050565b634e487b7160e01b600052602160045260246000fd5b600581106116ce57634e487b7160e01b600052602160045260246000fd5b9052565b600060018060a01b03808a16835280891660208401525086604083015285606083015284608083015260e060a083015261170f60e0830185611654565b905061171e60c08301846116b0565b98975050505050505050565b634e487b7160e01b600052604160045260246000fd5b600067ffffffffffffffff8084111561175b5761175b61172a565b604051601f8501601f19908116603f011681019082821181831017156117835761178361172a565b8160405280935085815286868601111561179c57600080fd5b858560208301376000602087830101525050509392505050565b600082601f8301126117c757600080fd5b6117d683833560208501611740565b9392505050565b600080604083850312156117f057600080fd5b82359150602083013567ffffffffffffffff81111561180e57600080fd5b61181a858286016117b6565b9150509250929050565b6000806040838503121561183757600080fd5b50508035926020909101359150565b6040815260006118596040830185611654565b90508260208301529392505050565b60008060006060848603121561187d57600080fd5b8335925060208401359150604084013567ffffffffffffffff8111156118a257600080fd5b6118ae868287016117b6565b9150509250925092565b600080600080608085870312156118ce57600080fd5b843567ffffffffffffffff808211156118e657600080fd5b6118f2888389016117b6565b9550602087013591508082111561190857600080fd5b611914888389016117b6565b9450604087013591508082111561192a57600080fd5b50611937878288016117b6565b949793965093946060013593505050565b6000806040838503121561195b57600080fd5b82359150602083013567ffffffffffffffff81111561197957600080fd5b8301601f8101851361198a57600080fd5b61181a85823560208401611740565b6001600160a01b038616815260a0602082018190526000906119bd90830187611654565b82810360408401526119cf8187611654565b905082810360608401526119e38186611654565b9150508260808301529695505050505050565b600080600060608486031215611a0b57600080fd5b505081359360208301359350604090920135919050565b600181811c90821680611a3657607f821691505b6020821081036115df57634e487b7160e01b600052602260045260246000fd5b601f82111561104a57600081815260208120601f850160051c81016020861015611a7d5750805b601f850160051c820191505b81811015611a9c57828155600101611a89565b505050505050565b815167ffffffffffffffff811115611abe57611abe61172a565b611ad281611acc8454611a22565b84611a56565b602080601f831160018114611b075760008415611aef5750858301515b600019600386901b1c1916600185901b178555611a9c565b600085815260208120601f198616915b82811015611b3657888601518255948401946001909101908401611b17565b5085821015611b545787850151600019600388901b60f8161c191681555b5050505050600190811b01905550565b634e487b7160e01b600052601160045260246000fd5b80820180821115611b8d57611b8d611b64565b92915050565b838152606060208201526000611bac6060830185611654565b9050826040830152949350505050565b600060018201611bce57611bce611b64565b5060010190565b8082028115828204841417611b8d57611b8d611b64565b600082611c0957634e487b7160e01b600052601260045260246000fd5b500490565b81810381811115611b8d57611b8d611b64565b634e487b7160e01b600052603260045260246000fd5b60208101611b8d82846116b056fef440aec6b52895984d061d622e6edeba6210f7c3e059be920663140c084560d7a2646970667358221220184391be3e5c9c665c88fbe09e4130f2874bba2b8891b65de38d9b9fffa7b7c664736f6c63430008130033","linkReferences":{}},"methodIdentifiers":{"createEscrow(uint256,uint256,string)":"4f129fa3","disputeResolutionPeriod()":"ecb7dbe9","disputeResult(uint256)":"fdd1f754","disputes(uint256)":"564a565d","escrows(uint256)":"012f52ee","judgeVotes(uint256,uint256)":"481b6a34","judges(uint256)":"b06b0368","lastOrderId()":"5662ecc7","lastServiceId()":"8db9cb87","lockPeriod()":"3fd8b02f","pows(uint256)":"48c77367","registerService(string,string,string,uint256)":"981e7c39","services(uint256)":"c22c4f43","submitDispute(uint256)":"d3967a6b","submitPoW(uint256,string)":"065d82e6","voteOnDispute(uint256,uint256,uint256)":"c3480bfa","withdrawFunds(uint256,bytes)":"b8c4fd83"},"id":20}